:04000000C4EF01F058
:1000080000C015F0F2A411D00B0ED76EDC0ED66E20
:10001800F2941906800E000A006E800E1918005C12
:1000280004E33C0E196E1B90D59E9EA01BD00B0EB0
:10003800CF6EDC0ECE6E9E901606800E000A006E05
:10004800800E1618005C0EE3040E166E1A06800E5B
:10005800000A006E800E1A18005C04E30A0E1A6E7D
:0A0068001B90CD9015C000F01100B0
:100072000F0E0C6E470E0D6E0D2EFED70C2EFCD7FA
:0600820000000000120066
:0A008800210E0D6E0D2EFED71200A2
:0600920000000000120056
:100098004BBE02D0819601D081864BBC02D08194A0
:1000A80001D081844BBA02D0819201D081824BB8B1
:1000B80002D0819001D081801BB202D0818801D00A
:1000C8008198818AE2DF819A4BB602D0819601D06D
:1000D80081864BB402D0819401D081844BB202D086
:1000E800819201D081824BB002D0819001D0818071
:1000F8001BB202D0818801D08198818AC6DF819A9B
:0C0108001BA202D0B2DF01D0BBDF12004E
:0C0114001B924AC04BF0BEDF1B821200A1
:10012000220E0C6E086A096A0A6A0B6A0C06D8B4B9
:100130001FD0D8900B320A32093208320332023211
:1001400001320032D8A0F2D70C06D8B409D004503E
:1001500008260550092206500A2207500B22EAD72A
:10016000045008260550092206500A2207500B2287
:0201700012007B
:10017200086A096A100E0C6E0134083609360450FA
:10018200085E0550D8A0053C095ED8B007D00450DF
:1001920008260550D8B0053C0926D890003601360D
:0601A2000C2EEAD712004A
:1001A8000900F5CFE6FF0006FBE10106F9E11200C0
:1001B800040ED56E0B0ED76EDC0ED66E300ECD6EDD
:1001C8000B0ECF6EDC0ECE6EF28A9D80F28CF28E14
:0201D800120013
:1001DA00939A93989390939293949396819A8198F1
:1001EA0081968194819281903FDF3EDF3DDF81825B
:1001FA008180818A49DF819A37DF818A45DF819A46
:10020A0033DF818A41DF819A2FDF8190818A3CDF47
:10021A00819A2ADF818A38DF819A81928186818A4E
:10022A0033DF819A21DF81968180818A2DDF819A4D
:10023A008190818A29DF819A17DF818A25DF819A55
:10024A008180818A21DF819A0FDF8190818A1CDF78
:10025A00819A8186818481828180818A15DF819A4F
:06026A0003DF1B821200FD
:100270000D6A086A0050D8B4000C04180A6E0ABE51
:100280000D1E0B6A04AE02D0041E042A00AE02D07A
:10029000001E002A005004100A6E0ABE1FD004502F
:1002A000085E003600340836045008260036060E74
:1002B0000C6E00340836045000B0085E00A008261A
:1002C00000360C2EF6D700A008260BB015D00DAEC8
:1002D000000C001E002A081E082A000C04AE09D0DB
:1002E00000BE04D00050086E006AF1D7006A002AF0
:1002F000000C001E0B2AD3D7082A0450085CD8A48F
:0E030000E6D7086A002A00AEE2D7FF0C120012
:10030E000FD0800E456E19D0C00E456E16D0940ECD
:10031E00456E13D0D40E456E10D0800E456E0DD0A6
:10032E004550010AEEE04550020AEEE04550030A40
:10033E00EEE04550040AEEE0F0D74604006E45505C
:10034E00002600C045F000C04BF09FDE1B92496AAC
:10035E0049504724E96E000E4820EA6EEE520BE03B
:10036E0049504724E96E000E4820EA6EEECF4AF05F
:0A037E00CADE492AEDD71B821200E7
:10038800040E166E1A0E176E186A3C0E196E0A0EB7
:100398001A6E1B901B941B96540E1D6E650E1E6ED6
:1003A8006D0E1F6E700E206E3A0E216E200E226E9C
:1003B800300E236E300E246E2C0E256E300E266EF7
:1003C800200E276E430E286E0C0E3F6E000E406EF8
:1003D800800E4018006E800E005C02E1100E3F5C3B
:1003E8000BE21D0E3F24E16E000E4020E26E200E4F
:1003F800E66E3F4A402AECD72D6A540E2E6E650EE3
:100408002F6E6D0E306E700E316E6F0E326E3A0EAC
:10041800336E060E3F6E000E406E800E4018006E62
:10042800800E005C02E1100E3F5C0BE22E0E3F24B2
:10043800E16E000E4020E26E200EE66E3F4A402A32
:10044800ECD7530E3D6E3E6AB3DE010EC26EBE0E91
:10045800C06E3B0EC16E9280928492869580958282
:1004680095948394B6DE010E4B6E12DE0C0E4B6E25
:100478000FDE010E456E010E466E1D0E476E000E14
:10048800486E41DF020E456E010E466E2E0E476E17
:10049800000E486E38DF83B020D01BB41ED01B84FA
:1004A800340E0C6EF10E0D6E0D2EFED70C2EFCD7F1
:1004B800000000001B701850000A02E11A0E1718FD
:1004C80006E11BB002D0CD9001D0CD8005D01BB085
:1004D80002D0D59E01D0D58E02D083B01B9483B2B2
:1004E8002DD01BB62BD01B86340E0C6EF10E0D6E64
:1004F8000D2EFED70C2EFCD7000000001850000A65
:1005080002E11A0E17180DE1190E176E000E186E7B
:100518000A0E1A6E1BA002D0D58ECD904C0E3D6EE1
:100528000CD01A0E176E000E186E3C0E196E1BA01A
:1005380002D0D59ECD80530E3D6E02D083B21B965D
:100548001BA09BD0C282C2A201D0FDD7030EC41447
:10055800006E00C004F0000E056E04C003F0026ACD
:10056800C3CF00F0000E016E0250001203500112BA
:10057800000E026E036E7D0E046E000E056E000EF8
:10058800066E000E076EC8DD070E086E00C004F088
:1005980001C005F002C006F003C007F0085007E0EC
:1005A8000732063205320432079EFF0FF8D704C01F
:1005B80041F005C042F00550010802E10450F4087A
:1005C80003E2010E1C6E01D01C6A1CB002D0839499
:1005D80001D083840A0E046E000E056E41C000F03F
:1005E80042C001F0C2DD08C000F009C001F0300EC1
:1005F8000024266E0A0E046E000E056E41C000F03F
:1006080042C001F0B2DD00C043F001C044F043C075
:1006180041F044C042F00A0E046E000E056E43C05D
:1006280000F044C001F0A1DD08C000F009C001F0ED
:10063800300E0024246E0A0E046E000E056E43C0B0
:1006480000F044C001F091DD00C041F001C042F06B
:100658000A0E046E000E056E88DD08C000F009C0A1
:1006680001F0300E0024236E010E456E010E466E19
:100678001D0E476E000E486E46DE17C0E9FF18C013
:10068800EAFFEECF00F00A0E046EEEDD08C000F0BF
:10069800300E0024366E17C0E9FF18C0EAFF800E3E
:1006A800EE18006E800E0A0A005C0DE317C0E9FF21
:1006B80018C0EAFFEECF00F00A0E046ED5DD300E4A
:1006C8000024356E02D0200E356E020E456E010EE6
:1006D800466E2E0E476E000E486E15DEDCD6FFD72E
:020000040030CA
:0E000000000C1F1EFF8381FF0FC00FE00F409A
:00000001FF
